:020000040800F2
:10000000E008002015020008591900083512000800
:100010005519000815060008972D0008000000007B
:10002000000000000000000000000000270200089F
:10003000190E0008000000002B0200082D02000825
:100040002F0200082F0200082F0200082F020008CC
:100050002F0200082F0200082F0200082F020008BC
:100060002F0200082F0200082F0200082F020008AC
:100070002F0200082F0200082F0200082F0200089C
:100080002F0200082F0200082F0200089D2A0008F6
:100090003D2D00082F0200082F0200082F02000843
:1000A0002F0200082F0200082F0200082F0200086C
:1000B0002F0200082F0200082F0200082F0200085C
:1000C0002F0200082F0200082F0200082F0200084C
:1000D0002F020008492800082F0200082F020008FC
:1000E000450E00082F0200086B2A00082F020008A6
:1000F0002F0200082F0200082F0200082F0200081C
:100100002F0200082F0200082F0200082F0200080B
:100110002F0200082F0200082F0200082F020008FB
:100120002F0200082F0200082F0200082F020008EB
:1001300000F002F800F05FF80AA090E8000C82449A
:100140008344AAF10107DA4501D100F054F8AFF277
:10015000090EBAE80F0013F0010F18BFFB1A43F0A5
:10016000010318478C300000AC3000000A444FF007
:10017000000C10F8013B13F0070408BF10F8014B06
:100180001D1108BF10F8015B641E05D010F8016B4B
:10019000641E01F8016BF9D113F0080F1EBF10F8AF
:1001A000014BAD1C0C1B09D16D1E58BF01F801CBD2
:1001B000FAD505E014F8016B01F8016B6D1EF9D555
:1001C0009142D6D37047000000230024002500266A
:1001D000103A28BF78C1FBD8520728BF30C148BFAA
:1001E0000B607047642900F04380002070471FB502
:1001F0001FBD10B510BD00F0C7F91146FFF7F7FF9E
:1002000002F056FE00F0E5F903B4FFF7F2FF03BC7D
:1002100002F0E7FD0948804709480047FEE7FEE78E
:10022000FEE7FEE7FEE7FEE7FEE7FEE7FEE7FEE7A6
:1002300004480549054A064B70470000E9270008B5
:1002400031010008E0020020E0080020E004002066
:10025000E0040020704700000FB4044910B503AA61
:10026000029800F063F910BC5DF814FB68010020EF
:100270002DE9F0410646002410687529314616A57F
:1002800010D0AFF30080002802DA404213A507E047
:1002900031688A0701D512A502E0490704D511A5E6
:1002A000012401E0AFF3008000210A2206F12407B7
:1002B00009E0B0FBF2FCB0FBF2F302FB1C003030B3
:1002C00078541846491C0028F3D123462A46304664
:1002D000BDE8F04100F0D0B8000000002D000000A3
:1002E0002B000000200000002DE9F05F8946044645
:1002F0004FF0000ADFF874B1FB44C0F820A020469C
:10030000E1688847002874D0252806D0D4E9012167
:100310009047206A401C2062F1E700265F46204695
:10032000E16888472028054607DB312D05D278197A
:1003300010F8200C08B10643F1E7B00701D526F00C
:100340000406C4F81CA00027C4F818A02A2D09D060
:10035000284602F03FFD38B304EB8708303DC8F86B
:10036000185019E059F8041B204604EB87029161EC
:10037000E1688847012F054618D1E069002820DA96
:1003800026F020061DE0D8F8180000EB800005EBF1
:1003900040003038C8F818002046E1688847054614
:1003A00002F018FD0028EED1012F0AD02E2D08D121
:1003B0002046E16888477F1C0546022F46F020064C
:1003C000C4DBA069002803DA404246F00106A061C0
:1003D000F00701D026F010066C2D0BD0682D09D047
:1003E0004C2D39D06A2D35D0742D35D07A2D33D09F
:1003F00016E038E0E1682F4620468847B8420546B7
:1004000009D16C2F26D04FF48060E1680643204666
:100410008847054604E06C2F1AD04FF480700643DD
:100420000DB3A5F14100192802D8203546F4006625
:100430004A462946204626604E46FFF7D3FE80B145
:1004400001280BD0F61D26F0070000F1080956E739
:100450004020E4E78020D8E70020D6E706F1040931
:100460004DE7284652E7206ABDE8F09FE02E0000E5
:1004700070477047704770472DE9F0470D46994621
:100480009246044600F124080168880604D5E06914
:1004900021F01001216000E00120A84201DD471B8E
:1004A00000E00027A1697A1902EB0900081AA0618F
:1004B0002078C00602D42046AFF30080002608E072
:1004C000D4E901211AF806009047206A401C761CE6
:1004D00020624E45F4DB2078C0060AD52046AFF3F3
:1004E000008006E0D4E9012130209047206A401CBA
:1004F0002062381EA7F10107F4DC07E0D4E90121EE
:1005000018F805009047206A401C2062281EA5F1BB
:100510000105F3DC2046AFF300802078000602D509
:100520000220BDE8F0870120FBE70000074B70B513
:100530000D467B4400F011F80446284600F020F8F0
:1005400010B14FF0FF3070BD204670BDEF280000A5
:1005500001694A1C02610878704700B58FB0CDE987
:1005600001310021059105497944CDE90310114677
:100570006846FFF7B9FE0FB000BD0000E5FFFFFFC2
:10058000007B00F080007047754600F02BF8AE4607
:1005900005006946534620F00700854618B020B58F
:1005A000FFF746FEBDE820404FF000064FF0000781
:1005B0004FF000084FF0000B21F00701AC46ACE80B
:1005C000C009ACE8C009ACE8C009ACE8C0098D4678
:1005D000704710B50446AFF300802046BDE81040D8
:1005E000FFF712BE004870478002002008B54FF4A4
:1005F000C06001F0EBF928208DF8000002208DF892
:10060000010001208DF802008DF80300684601F01A
:10061000A5F908BD00BFFEE70146CAB20B1243EAC6
:100620000220704710B5002449E047F6FF702949C1
:1006300008602948008800F00F0028490870084623
:100640000078274901EB8000D0F8000C84B204F454
:100650000040C8B12148007801EB8000D0F8000CC0
:10066000C0F30E0048F68F7108401C4909781C4AF7
:1006700002EB8101C1F8000C18490978491E194A9A
:1006800052F8210080471AE004F08000B8B1134806
:100690000078134901EB8000D0F8000C48F60F7188
:1006A00008400E4909780E4A02EB8101C1F8000C9E
:1006B0000A490978491E0C4A52F82100804705482A
:1006C000006880B20449088000F400400028ACD1E2
:1006D00010BD0000445C00407000002018000020A5
:1006E000005000409C0000208000002008B5002041
:1006F000009022E19748008800F00F0096490870AA
:100700000846007800287CD1944800689449088005
:100710000846008800F03000924908809048008820
:1007200000F440508E4908808C4909684BF6BF722E
:1007300001EA020080F4005080F0200040F4004103
:1007400041F08001854A11608248008800F0100065
:1007500090BB1046006848F60F71084011460860CB
:1007600000F06AFD7D4909684BF6BF7201EA02009C
:100770007B49098801F4805109B180F4805078499F
:10078000098801F4005109B180F4005075490988C5
:1007900001F0100109B180F010007249098801F0E0
:1007A000200109B180F0200081B241F4004141F004
:1007B00080016A4A116008BDFFE76848006880B29E
:1007C0000090BDF8000000F40060B0B3634800681A
:1007D000C0F30E0048F68F7108406049086001F0D0
:1007E000DBFC5E4909684BF6BF7201EA02005C4916
:1007F000098801F4805109B180F480505849098872
:1008000000E056E001F4005109B180F40050554970
:10081000098801F0100109B180F0100051490988E0
:1008200001F0200109B180F0200081B241F40041C3
:1008300041F08001494A1160BDE7FFE7BDF80000C3
:1008400000F40040002878D044480068C0F30E004F
:1008500048F68F7108404149086001F05DF93F4951
:1008600009684BF6BF7201EA02003D49098801F4AC
:10087000805109B180F480503949098801F4005150
:1008800009B180F400503749098801F0100109B11D
:1008900080F010003349098801F0200109B180F08F
:1008A000200081B241F4004141F080012B4A1160E7
:1008B00081E7294800782C4901EB8000D0F8000C32
:1008C00080B20090BDF8000000F40040C0B12248A2
:1008D000007801EB8000D0F8000CC0F30E0048F661
:1008E0008F7108401C4909781F4A02EB8101C1F849
:1008F000000C19490978491E1C4A52F8210080470A
:10090000BDF8000000F08000B8B113480078164927
:1009100001EB8000D0F8000C48F60F7108400E493A
:100920000978114A02EB8101C1F8000C0A490978E3
:10093000491E0F4A52F82100804708484430006899
:1009400080B20449088000F4004000287FF4D2AE51
:1009500000BF30E77000002018000020005C00405D
:100960002C0000202E000020005000409C000020A1
:10097000800000200B4A02EB8001D1F8001C01F43A
:10098000804171B102EB8001D1F8001C48F68F72F2
:1009900011404CF280021143024B03EB8002C2F87B
:1009A000001C7047005000400B4A02EB8001D1F858
:1009B000001C01F0400171B102EB8001D1F8001C74
:1009C00048F68F72114048F2C0021143024B03EB0C
:1009D0008002C2F8001C704700500040084A02EB39
:1009E0008001D1F8001C48F68F62114048F2800265
:1009F0001143034B03EB8002C2F8001C7047000058
:100A0000005000402DE9F0472848006800F110052B
:100A10002E8826480068077AD6B9042F18D12448B2
:100A2000007801280FD100212248006880B2801C84
:100A3000214A42F8101030202049088000BF0020D1
:100A40001B49087003E0072710201C49088027E095
:100A5000AC88A64201D8042000E002200746B44238
:100A600000D93446A0B2A96888478046002000F02B
:100A7000B7FB8146A2B24946404602F08FF9A1B2C7
:100A8000002001F085FA2888001B2880688820440F
:100A9000688030200949088000020949088000BFA9
:100AA000024909680F72BDE8F08700001C000020B1
:100AB00016000020505C0040006000402E00002026
:100AC0002C0000202DE9F0412848006800F11004B6
:100AD0002688A068C0B1BEB1A588B54200D9354608
:100AE000A8B2A168884707462088401B20806088FC
:100AF00028446080002000F063FB8046AAB2414693
:100B0000384601F031F800BF208850B14FF4405012
:100B1000174908800021084601F03AFA30201549AB
:100B200008802088A188884204DB03200F490968D7
:100B3000087218E02088002804DD05200B490968A8
:100B4000087210E0208870B9062008490968087208
:100B500000210948006880B2801C084A42F8101041
:100B6000302004490880BDE8F08100001C0000200E
:100B70002C0000202E000020505C0040006000404F
:100B80002DE9F84F9B48006845780027BA46062DA6
:100B90001BD198480068007800F07F00002813D12E
:100BA000944909688878012803D193490968CF6975
:100BB0000AE0022803D1904909680F6A04E003287B
:100BC00002D18D4909684F6A94E0002D64D18948AB
:100BD0000068408800285FD186480068C0880228E5
:100BE0005AD1844800680079002855D181480068AE
:100BF000007800F07F0028B97E480068808808B936
:100C00007E4F77E07B480068007800F07F00012885
:100C100010D1784909684879774909688A690021BB
:100C20009047002866D173480068807A002861D018
:100C3000724F5FE06F480068007800F07F00022884
:100C400058D16C480068407900F00F066948006888
:100C5000407900F0700967480068407900F0800032
:100C600038B1674901EB8600D0F8000C00F030087D
:100C700006E0634901EB8600D0F8000C00F4405810
:100C800060480078B04235D9B9F1000F32D1B8F1DF
:100C9000000F2FD0594F2DE0082D07D1554800687F
:100CA000007800F07F0028BB574F23E00A2D21D1A8
:100CB00050480068007800F07F0001281AD14D48A4
:100CC0000068807AB0B14B480068408890B94948C4
:100CD0000068007970B947480068C088012809D1C8
:100CE000444909684879444909688A69002190475C
:100CF00000B9464F57B13F480068A0F812A03D48E0
:100D0000006887610020B84700240FE0394A126864
:100D10005078394A1268116988470446032C05D176
:100D20000920344909680872BDE8F88F3148006825
:100D3000008A4FF6FF71884204D109202D490968C5
:100D40000872F1E7022C03D02A480068008A20B913
:100D50000820284909680872E6E7264800680078F4
:100D600000F08000E0B323480068C088009021486C
:100D70000068008A0099884204D91E4900980968D1
:100D8000088223E01B480068008A1A490968C9885C
:100D900088421BDA17480068008A1749096891F8E9
:100DA0002C10884203DA0020194908700EE011481F
:100DB0000068008A1049096891F82C1090FBF1F244
:100DC00001FB120010B90120114908700A4800689F
:100DD00090F82C10074800688182FFF713FE07E0A7
:100DE000FFE70320034909680872000309490880E6
:100DF00000BF99E71C0000202000002039240008D3
:100E000000500040C4000020BD2300080D2400084D
:100E1000160000202C0000207047000010B50120B3
:100E20000249087002A0FFF717FA10BD3000002039
:100E30004550315F494E5F43616C6C6261636B206A
:100E40000D0A000010B54FF4005000F09DF880B17D
:100E500000228021224800F0ADF94FF4005000F04C
:100E60008DF801201F4908701F4908701FA0FFF767
:100E7000F3F94FF4804000F087F888B10122802117
:100E8000174800F097F94FF4804000F077F8012000
:100E90001449087002201449087018A0FFF7DCF903
:100EA0004FF4004000F070F8C0B180210C4800F011
:100EB00074F9C0F10100C4B222468021084800F054
:100EC00079F94FF4004000F059F801200549087005
:100ED0000320054908700DA0FFF7BEF910BD000002
:100EE00000180140300000203100002045585449CE
:100EF0005F4C696E653133200D0A00004558544936
:100F00005F4C696E653134200D0A00004558544924
:100F10005F4C696E653135200D0A00000EB5012168
:100F2000092000F089FEFFF761FB4FF46040ADF847
:100F3000080048208DF80B0002A90F4800F0A2F825
:100F40000D21012000F07EF80E21012000F07AF83A
:100F50000F21012000F076F84FF46040009000204F
:100F60008DF804000C208DF8050001208DF8060096
:100F7000684600F01DF80EBD000C014001490860F4
:100F80007047000014040140014600200022074B76
:100F90001B6803EA0102054B14331B680B4013B1B5
:100FA0000AB1012000E00020704700000004014069
:100FB000002123498279002A3AD00A461268036840
:100FC0009A430B461A600A1D126803689A430B1D68
:100FD0001A60027911440A6803681A430A60184AC1
:100FE0000832126803689A43154B08331A601A1DB9
:100FF000126803689A43124B0C331A604279102A24
:101000000ED11A1F126803681A430D4B08331A6079
:101010001A1D126803681A43094B0C331A600DE05D
:101020000749427911440A6803681A430A6005E0D7
:10103000027911440A6803689A430A607047000005
:101040000004014030B500228B071C0F0F2303FA68
:1010500004F20B4B8C1053F824309343084C8D1042
:1010600044F8253023468C1053F824308C07240F85
:1010700000FA04F42343024C8D1044F8253030BDAF
:10108000080001402DE9F04102460025002600201D
:1010900000230024002791F803C00CF00F0591F8FD
:1010A00003C00CF0100CBCF1000F03D091F802C08B
:1010B0004CEA050591F800C0BCF1000F31D014686E
:1010C00000202BE04FF0010C0CFA00F3B1F800C047
:1010D0000CEA03069E4220D183004FF00F0C0CFA5D
:1010E00003F7BC4305FA03FC4CEA040491F803C07F
:1010F000BCF1280F06D14FF0010C0CFA00FCC2F82D
:1011000014C00AE091F803C0BCF1480F05D14FF0BC
:10111000010C0CFA00FCC2F810C0401C0828D1D306
:101120001460B1F800C0BCF1FF0F34DD546800203A
:101130002EE000F1080C4FF0010808FA0CF3B1F8AA
:1011400000C00CEA03069E4221D183004FF00F0C31
:101150000CFA03F7BC4305FA03FC4CEA040491F8CB
:1011600003C0BCF1280F05D100F1080C08FA0CF8F7
:10117000C2F8148091F803C0BCF1480F07D100F108
:10118000080C4FF0010808FA0CF8C2F81080401C57
:101190000828CED35460BDE8F08102460020D36811
:1011A0000B400BB1012000E0002070474161704707
:1011B000016170470AB1016100E0416170470000C0
:1011C00001460548006880B200EBC100001D034ADB
:1011D00032F8100080B27047505C00400060004060
:1011E00001460548006880B200EBC100034A32F8AE
:1011F000100080B270470000505C0040006000406A
:1012000070B50A480468001D0568001D066834446E
:1012100054B108220649204600F046F80422044949
:101220001031284600F040F870BD0000E8F7FF1FBD
:101230003400002000BFFEE710B518480068047AAB
:10124000022C01D0042C05D1FFF7DCFB1348006809
:10125000047A1CE0062C19D1104800684078052853
:101260000ED10E480068007800F07F0040B90B49AD
:101270000968C87800F0E2FD09490968086A8047F2
:101280000849096888688047082400E00824034961
:1012900009680C7200F07CFC10BD00001C000020EE
:1012A000280000202000002030B50B46002100BFA0
:1012B00016E00A24B4EB107F05D9302404EB107437
:1012C00003F8114005E0412404EB10740A3C03F8D4
:1012D0001140000100254C00641C1D554C1CE1B25E
:1012E0009142E6DB30BD000070B5044600251C4885
:1012F00001681CA0FEF7B0FF062C18D12448006836
:10130000007800F07F00012811D121480068407961
:1013100068B91F4800688078222801D11D4D10E06F
:101320001B480068807821280BD11B4D09E0184824
:101330000068007800F07F00212802D1032C00D142
:10134000164D0DB9022070BD11480068856100215D
:101350000F48006841820020A8470020F3E7000002
:101360005C0100204A6F79737469636B5F44617438
:10137000615F53657475702C20624465766963659E
:101380005374617465203D202564200D0A0000001F
:101390001C000020F51400084914000899140008E6
:1013A00010B504460448016804A0FEF755FF104933
:1013B000204601F019F810BD5C0100204A6F7973D6
:1013C0007469636B5F476574436F6E6669674465F4
:1013D0007363726970746F722C20624465766963FE
:1013E000655374617465203D202564200D0A00005A
:1013F0002401002010B504460448016804A0FEF74B
:101400002BFF1049204600F0EFFF10BD5C010020CB
:101410004A6F79737469636B5F4765744465766975
:10142000636544657363726970746F722C206244E3
:1014300065766963655374617465203D2025642079
:101440000D0A00001C01002010B504460448016884
:1014500004A0FEF701FF0F49204600F0C5FF10BDB4
:101460005C0100204A6F79737469636B5F47657430
:1014700048494444657363726970746F722C2062CA
:101480004465766963655374617465203D20256405
:10149000200D0A003401002010B5044606480168FA
:1014A00006A0FEF7D9FE2CB9012010490968088270
:1014B000002010BD0E48FCE75C0100204A6F7973E4
:1014C0007469636B5F47657450726F746F636F6CA0
:1014D00056616C75652C206244657669636553744A
:1014E000617465203D202564200D0A001C00002049
:1014F000BC00002010B504460448016804A0FEF7B3
:10150000ABFE1049204600F06FFF10BD5C010020CB
:101510004A6F79737469636B5F4765745265706F66
:10152000727444657363726970746F722C206244C4
:1015300065766963655374617465203D2025642078
:101540000D0A00002C01002070B50546094800680E
:10155000C4780948016809A0FEF77EFE042C01DD6D
:10156000002070BD124800EBC401284600F03CFF8B
:10157000F7E700001C0000205C0100204A6F79732F
:101580007469636B5F476574537472696E67446511
:101590007363726970746F722C206244657669633C
:1015A000655374617465203D202564200D0A000098
:1015B0003C01002070B504460D460748016807A0AD
:1015C000FEF74AFE002D01DD022070BD002C01DD7A
:1015D0000220FAE70020F8E75C0100204A6F7973E7
:1015E0007469636B5F4765745F496E7465726661A9
:1015F00063655F53657474696E672C206244657619
:101600006963655374617465203D202564200D0A6B
:101610000000000010B504460948016809A0FEF763
:101620001BFE13480068007800F07F00212804D1D9
:101630000B2C02D100F00EF910BD0220FCE70000D7
:101640005C0100204A6F79737469636B5F4E6F446D
:101650006174615F53657475702C206244657669AE
:1016600063655374617465203D202564200D0A0074
:101670001C00002010B50020264909688872254901
:101680000968C8722448C079224909684872002054
:1016900000F0CCFB4FF40071002000F0C1FC1021E1
:1016A000002000F083FC1821002000F0EFFB5821FF
:1016B000002000F05DFC0020FFF790F9174890F83B
:1016C0002C10002000F0F4FB002000F037FC4FF459
:1016D000C061012000F0A4FC4FF48071012000F0F3
:1016E00047FC0421012000F053FC0021012000F000
:1016F00005FC2021012000F059FC002000F09EFB99
:101700000120074908600846016806A0FEF7A4FD0D
:1017100010BD00001C00002028310008C800002077
:101720005C0100204A6F79737469636B5F52657363
:1017300065742C20624465766963655374617465D1
:10174000203D202564200D0A00000000F8B5064663
:101750000020009000240025022E12D0032E04D079
:10176000042E06D0052E10D107E0A4F1140044B2D7
:101770000CE004F1140044B208E0A5F1140045B2F5
:1017800004E005F1140045B200E0F8BD00BFE0B28E
:101790008DF80100E8B28DF80200002005490870BC
:1017A00004226946812001F0DFFA012000F01EFCCE
:1017B00000BFEAE73000002010B5064CA07A10B157
:1017C0000520054908600448016804A0FEF744FDAF
:1017D00010BD0000700100205C0100204A6F797389
:1017E0007469636B5F536574436F6E666967757286
:1017F0006174696F6E2C2062446576696365537409
:10180000617465203D202564200D0A0010B5042078
:10181000034908600846016802A0FEF71DFD10BDDF
:101820005C0100204A6F79737469636B5F53657460
:10183000446576696365416464726573732C2062E4
:101840004465766963655374617465203D20256441
:10185000200D0A0010B506480068C47805480460E9
:101860000548016805A0FEF7F7FC002010BD000048
:101870001C000020BC0000205C0100204A6F79732E
:101880007469636B5F53657450726F746F636F6CD0
:101890002C20624465766963655374617465203DEC
:1018A000202564200D0A00007047704710B5FFF72F
:1018B000A7FC002007490968887200F08DF901F043
:1018C00041FA0020044908600846016803A0FEF7B9
:1018D000C3FC10BD1C0000205C0100204A6F79731E
:1018E0007469636B5F696E69742C20624465766904
:1018F00063655374617465203D202564200D0A00E2
:1019000008B50121402000F097F94FF4D060ADF800
:10191000000010208DF8030003208DF802006946B6
:101920000248FFF7AFFB01F0A7FA08BD001801401D
:1019300010B5064CA07A18B105200549086002E0F0
:1019400001200349086000F04FFF10BD7001002026
:101950005C01002000BFFEE77047704770B50021B2
:1019600000230F22C47804B3154C246804F4E06407
:10197000C4F5E064210AC1F10403CA40447804FAC2
:1019800003F184781440214309010E4C0678A155D7
:10199000047804F01F050124AC4005786D11AD00FA
:1019A00005F1E025C5F8004109E0047804F01F05C1
:1019B0000124AC40044D0678761145F8264070BDF0
:1019C0000CED00E000E400E080E100E002490143AA
:1019D000024A1160704700000000FA050CED00E0BB
:1019E00070B5022647480068447846480068007889
:1019F00000F07F00002844D1092C03D100F09CFDA9
:101A000006465FE0052C14D13E480068C0787F2868
:101A10000BDC3C480068807838B93A480068808818
:101A200018B938480068807A08B1082565E00026B2
:101A300048E0032C0ED133480068C078012807D154
:101A400030480068808818B900F09AFD064639E0F1
:101A5000022637E0012C35D12A480068C0780128D9
:101A60000DD128480068808848B926480068407A27
:101A700000F0200018B100F0EBFB064622E0022641
:101A800020E020480068007800F07F00012805D1A0
:101A90000B2C17D100F0F0FD064613E01948006842
:101AA000007800F07F0002280BD1012C03D100F058
:101AB000CFFB064606E0032C04D100F075FD064678
:101AC00000E002264EB1E0B20F4A12685169884721
:101AD0000646032E01D109250FE00EB108250CE0C2
:101AE000062500210948006880B2801C084A42F897
:101AF000101030200749088000BF024909680D72A4
:101B000070BD00001C00002020000020505C004040
:101B1000006000402E00002010B511480068047AD3
:101B2000022C01D0042C01D1082412E0032C01D096
:101B3000052C05D1FEF7C6FF09480068047A08E0C5
:101B4000072C05D107490968C8688047082400E0C8
:101B50000824034909680C7200F01AF810BD00004F
:101B60001C00002020000020F0B5561C7510074E08
:101B700006EB41042B4605E034F8047B20F8017B9A
:101B8000401C5B1E002BF7D1F0BD00000060004040
:101B900010B50D4890F82C10002000F089F90B4882
:101BA0000068007A082805D1400209490880102001
:101BB0000849088005480068007A092801D10120F9
:101BC00010BD0020FCE70000C80000201C00002021
:101BD0002C0000202E00002010B5012000F04CFF4A
:101BE00001240B48046000200A4908800846008848
:101BF000074908600020091D08604FF4E0500549BE
:101C000008800846008802490860002010BD0000D6
:101C1000405C00402600002029B1064AD2690243F8
:101C2000044BDA6104E0034AD2698243014BDA6172
:101C3000704700000010024029B1064A9269024331
:101C4000044B9A6104E0034A92698243014B9A6112
:101C5000704700000010024030B50021002200242F
:101C600000232D4D6D6805F00C0121B1042905D02C
:101C7000082923D105E0294D056022E0274D0560A4
:101C80001FE0254D6D6805F47012234D6D6805F455
:101C90008034022505EB92421CB9214D5543056065
:101CA0000BE01D4D6D6805F400351DB11C4D55430D
:101CB000056002E0194D5543056002E0174D0560CF
:101CC00000BF00BF144D6D6805F0F0010909154D06
:101CD0006B5C0568DD4045600F4D6D6805F4E061A3
:101CE000090A104D6B5C4568DD4085600A4D6D68E2
:101CF00005F46051C90A0B4D6B5C4568DD40C56059
:101D0000054D6D6805F44041890B074D6B5CC56856
:101D1000B5FBF3F5056130BD0010024000127A00FA
:101D200000093D000000002010000020014908606B
:101D300070470000D800424270B50546072D01D01B
:101D40002E4805702D48007808284ED2DFE800F0B4
:101D500004111A202B384E4F2948006828B900F08A
:101D600053F806202549087002E005202349087031
:101D700041E000F049F80420204908700120204982
:101D8000086038E002201D4948700320087032E0E6
:101D90001A484078401E194948700846407808B9EA
:101DA0000420087027E01748006884B244F010044B
:101DB000144804600520114908700A2048701AE090
:101DC0000E484078401E0D4948700846407858B982
:101DD0000C48006884B224F010040A48046006200D
:101DE000087000200649086005E000BF00BF06201B
:101DF0000249087000BF00BF70BD000061010020F3
:101E000064010020405C004010B50748006884B2BF
:101E100024F0040404480460FFF78AFD4FF43F40B7
:101E20000149086010BD0000405C00404FF6F871A9
:101E30000140014A11607047505C004030B50146D6
:101E40000F4B1A78002014E003060E4C04EB93535A
:101E5000D3F8003C48F68F74234048F280042343B3
:101E6000C4B223430406074D05EB9454C4F8003C68
:101E7000401C9042E8D341F08003034C236030BD06
:101E8000C4000020005000404C5C004010B54A10D7
:101E90005300054A126892B202EBC002121D034CB5
:101EA00044F8123010BD0000505C0040006000405B
:101EB00010B502460F48006880B200EBC200801DDA
:101EC0000D4C04EB40033E290BDD481101F01F04CB
:101ED0000CB9441EA0B24FF4004444EA80241C60B4
:101EE00007E0481001F001040CB1441CA0B28402C8
:101EF0001C6010BD505C00400060004030B50E4CCE
:101F000004EB8003D3F8003C4BF68F7403EA040221
:101F100001F480530BB182F4805201F400530BB1F1
:101F200082F4005242F4004343F08003024D05EB7B
:101F30008004C4F8003C30BD0050004010B50B4B8D
:101F400003EB8002D2F8002C4BF68F7302EA0301F8
:101F500081F4805181F4005141F4004242F080024A
:101F6000024C04EB8003C3F8002C10BD005000406D
:101F700010B54A105200044B1B689BB203EBC00320
:101F8000024C44F8132010BD505C0040006000403B
:101F9000044A126892B202EBC002921C024B43F850
:101FA00012107047505C00400060004030B50E4C8D
:101FB00004EB8003D3F8003C48F6BF7403EA040244
:101FC00001F010030BB182F0100201F020030BB1FD
:101FD00082F0200242F4004343F08003024D05EBFF
:101FE0008004C4F8003C30BD0050004010B50B4BDD
:101FF00003EB8002D2F8002C48F6BF7302EA03011B
:1020000081F0100181F0200141F4004242F0800291
:10201000024C04EB8003C3F8002C10BD00500040BC
:1020200010B5074B03EB8002D2F8002C48F68F1353
:102030001A400A43024C04EB8003C3F8002C10BD85
:102040000050004010B500F001F810BD0CB50020A4
:10205000019000903348006840F4803031490860B6
:1020600000BF3048006800F4003000900198401C28
:102070000190009818B90198B0F5A06FF1D12948E6
:10208000006800F4003010B10120009001E0002051
:1020900000900098012843D12348006840F01000C8
:1020A000214908600846006820F0030008600846DF
:1020B000006840F0020008601A484068194948600A
:1020C0000846406848600846406840F480604860C0
:1020D0000846406820F47C1048600846406840F498
:1020E000E81048600846006840F08070086000BF53
:1020F0000C48006800F000700028F9D009484068DA
:1021000020F00300074948600846406840F002009C
:10211000486000BF0348406800F00C000828F9D16F
:102120000CBD000000100240002002400EB501214D
:102130004020FFF781FD4FF48070ADF808000320C8
:102140008DF80A0018208DF80B0002A90C48FEF744
:1021500099FF4FF480710A48FFF728F84FF4802068
:10216000FEF70CFF4FF48020009008208DF805004A
:1021700001208DF806006846FEF71AFF0EBD00002C
:102180000018014010B50020FFF7D0FD0121C8055F
:10219000FFF742FD10BD000038B501242948006852
:1021A00080B2001D284931F8100080B201EB4000D8
:1021B000009026480068007A092832D000980078FC
:1021C0002249096808700098401C00900098007827
:1021D0001E49096848700098401C0090009800EB68
:1021E00044000090009931F8020B0091FEF714FAB8
:1021F000164909684880009800EB44000090009957
:1022000031F8020B0091FEF707FA1049096888803F
:10221000009800EB44000090009800880B49096882
:10222000C880012009490968087208480068C08808
:1022300010B9FFF7D5FB01E0FEF7A2FCFFF7A8FC01
:1022400038BD0000505C0040006000401C000020D1
:102250002DE9F04754480068007800F07F08B8F195
:10226000000F0AD150480068407A00F0DF004E4964
:10227000096848720020BDE8F087B8F1020F7CD1F0
:1022800049480068408818B947480068007908B193
:102290000220F0E7DFF8149143480068477927F0FF
:1022A00080052C4640480068407900F0800038B135
:1022B0003F4901EB8400D0F8000C00F0300606E046
:1022C0003B4901EB8400D0F8000C00F4405699F82B
:1022D0000000A84204D91EB133480068807A08B9CA
:1022E0000220C8E707F0800080B1314901EB84008B
:1022F000D0F8000C00F0300010284BD1E0B2FEF70F
:1023000053FBE0B23021FFF751FE43E0284901EBD7
:102310008400D0F8000C00F44050B0F5805F39D153
:10232000E4B9244A92F82C10E0B2FFF7C1FD204A2C
:1023300002EB8401D1F8001C4BF68F7201EA020017
:1023400080F4805080F4005040F4004141F080015E
:10235000174B03EB8402C2F8001C1BE0E0B2FEF74F
:1023600009FB134A02EB8401D1F8001C4BF68F7273
:1023700001EA020080F4805000E011E080F4005097
:1023800040F4004141F08001094B03EB8402C2F8A4
:10239000001C00BF084909684869804700206AE7B7
:1023A00000BF022067E700001C000020C4000020DE
:1023B00000500040C80000202800002010B504464E
:1023C0002CB90120064909680882002010BD054982
:1023D000096808688047024800680A30F6E700008C
:1023E0001C0000202800002010B5024606480068A6
:1023F000438A32B98888C01A034C2468208200209E
:1024000010BD08681844FBE71C00002010B5044606
:102410002CB90120064909680882002010BD054931
:10242000096888688047024800680C30F6E70000B9
:102430001C0000202800002010B504462CB9022002
:10244000394909680882002010BD002037490880FA
:1024500035480068007800F07F0018BB32490968F1
:10246000487A00F0200131B13049097841F0020189
:102470002E4A117005E02D49097801F0FD012B4A23
:10248000117000F0400131B12849097841F0010193
:10249000264A117005E02549097801F0FE01234A1A
:1024A00011703AE020480068007800F07F000128B1
:1024B00001D11E48C8E71C480068007800F07F0082
:1024C000022828D1184A1268517901F00F0001F052
:1024D00080027AB1164B03EB8002D2F8002C02F096
:1024E0003002102A16D1114A127842F001020F4B25
:1024F0001A700FE00E4B03EB8002D2F8002C02F4AE
:102500004052B2F5805F05D1084A127842F00102CC
:10251000064B1A7001E0002096E706490968086931
:102520008047024890E700001C00002014000020B3
:10253000005000402800002010B50E480068C07808
:102540000D494978884213DC0A480068807878B9D8
:1025500008480068808858B906480068C07805496E
:10256000096888720549096848688047002010BDDD
:102570000220FCE71C000020C400002028000020EE
:1025800010B507480068407A40F020000449096807
:10259000487204490968C8698047002010BD0000DE
:1025A0001C000020280000202DE9F0412E48006882
:1025B000467926F080073C462B480068407900F0B9
:1025C000800038B1294901EB8400D0F8000C00F0FC
:1025D000300506E0254901EB8400D0F8000C00F43A
:1025E000405523480078A04208D91F480068408819
:1025F00020B91DB11C480068807A10B90220BDE8DE
:10260000F08106F08000A0B1184A02EB8401D1F8F5
:10261000001C48F6BF7201EA020080F0100040F48E
:10262000004141F08001114B03EB8402C2F8001C11
:1026300014E00E4A02EB8401D1F8001C4BF68F72B5
:1026400001EA020080F4805040F4004141F0800132
:10265000064B03EB8402C2F8001C00BF0549096861
:10266000886980470020CAE71C0000200050004015
:10267000C40000202800002010B5174B1B68D97833
:10268000154B1B685879154B1B689A69904704468F
:1026900011480068807AE8B13CB90F4800680079B9
:1026A00018B90D480068807808B1022010BD8CB9B7
:1026B0000B490968C868804707480068407906499F
:1026C0000968C87204480068C0780349096808733B
:1026D0000020EBE70220E9E71C000020200000209A
:1026E0002800002038B50021002200230093394B38
:1026F0001B6898B200BF09E0374C04EB8103D3F8A4
:10270000003C9BB2354C44F82130491C0829F3D3D6
:1027100040F480602F4B186040F00100186020F0FA
:102720000100186000BF2B4B1B1D1B6803F4806366
:10273000002BF8D04FF6FF33264C241D23600021D8
:1027400009E0264B53F821309BB2234D05EB810461
:10275000C4F8003C491C0829F3D340F008001D4B85
:1027600018601B6898B240F004001A4B18601C4BAC
:102770001B6800931A4B1A6822F0030242F0010210
:102780001A60184B1B6843F00403164C2360114B6E
:102790001B1D1B6803F4805333B930BF23461B68ED
:1027A00023F00403236014E04EF6FF73094C241D4C
:1027B0002360231F1B6898B220F00800231F1860B5
:1027C000074C009B2360074B1B6823F00403054C58
:1027D000236038BD405C004000500040980100205C
:1027E0000070004010ED00E010B51348006840F0A4
:1027F00001001149086008464068104908400E4928
:102800004860084600680E4908400B4908600846C1
:10281000006820F4802008600846406820F4FE002C
:1028200048604FF41F008860FFF70CFC4FF0006019
:102830000449086010BD0000001002400000FFF8CD
:10284000FFFFF6FE08ED00E010B540F225511D48EF
:1028500000F04AF810B31B4800F002F9C4B21A485D
:10286000008800F40040C8B91748008800F4804090
:1028700060B10A2C03D000201349088020E01248E0
:10288000008840F400401049088019E00D2C06D162
:102890000D48008840F480400B49088010E00A4849
:1028A0000088C0F30D0009490C5407480088401CFB
:1028B0000549088008460088C72801DD00200880F7
:1028C00010BD0000003801406C010020B80100205C
:1028D00021B1828942F40052828104E082894DF65E
:1028E000FF731A408281704770B5024600240023AE
:1028F0000025002040F66A16B14200D100BFC1F3A6
:10290000421501F01F03012606FA03F3012D02D13F
:102910009689334006E0022D02D1168A334001E049
:10292000968A33400C12012606FA04F416883440C5
:1029300013B10CB1012000E0002070BDF0B50346DA
:10294000002400260025002040F66A17B94200D175
:1029500000BF1846C1F3421401F01F06012707FA11
:1029600006F5012C01D10C3004E0022C01D110300D
:1029700000E014301AB107682F43076002E00768CF
:10298000AF430760F0BD00002DE9F04786B0054673
:102990000E460024A24600BFA1460027B08900B120
:1029A00000BF2F462C8A4CF6FF700440F088044389
:1029B0002C82AC894EF6F3100440B088318908436C
:1029C000718908430443AC81AC8A4FF6FF40044050
:1029D000B0890443AC8201A8FFF73EF91F48874243
:1029E00002D1DDF810A001E0DDF80CA0A88900F408
:1029F000004040B10AEBCA0000EB0A103168490000
:102A0000B0FBF1F807E00AEBCA0000EB0A103168EE
:102A10008900B0FBF1F86420B8FBF0F00401200954
:102A2000642101FB1089A88900F4004040B13220E4
:102A300000EBC900B0FBF1F000F00700044308E030
:102A4000322000EB09106421B0FBF1F000F00F0020
:102A500004432C8106B0BDE8F08700000038014037
:102A600001468888C0F30800704710B54FF48020F5
:102A7000FEF784FA10BD000010B504462CB94FF4DF
:102A800080710548FEF792FB04E04FF48071024824
:102A9000FEF78EFB10BD00000018014010B5FDF7D9
:102AA000C1FD10BD10B5084808490860022009683A
:102AB000087207480749086007480849086005493F
:102AC00009680868804710BD700100201C000020C4
:102AD000C800002020000020F8000020280000206E
:102AE00008B54FF4A060FEF771FF14208DF80000C8
:102AF00001208DF8010000208DF8020001208DF8E2
:102B000003006846FEF72AFF13208DF8000000201E
:102B10008DF801008DF8020001208DF80300684651
:102B2000FEF71CFF08BD000010B588B000247848EF
:102B30000068784908800846008800F4004076491B
:102B40000988084028B1FDF7D1FD012073490870BC
:102B500006E00120714948726E480088704908807B
:102B60006C48008800F480606B490988084048B1CF
:102B70004FF6FF30664908606A494868804701207F
:102B8000664948706348008800F40050624909882B
:102B9000084030B14DF6FF705D49086001205F4983
:102BA000C8705C48008800F480505B490988084080
:102BB00048B14EF6FF70564908600020FFF7BCF898
:102BC0000120564908715348008800F400605249BA
:102BD0000988084078B15448007810B1FFF782FDA9
:102BE00002E00220FFF7A8F84FF2FF7048490860A2
:102BF00001204A4948714748008800F4007046495E
:102C00000988084058B14FF6FF50414908604748CD
:102C10000078401C454908700120404988713D48B2
:102C2000008800F480703C490988084000286CD076
:102C30004FF6FF6036490860081D006800F4004048
:102C4000002859D03A480068401C394908600846B5
:102C50000068032856D92E48001F006800F00800BD
:102C600000284FD12A48001F006880B2314908600F
:102C7000002408E0304901EB8400D0F8000C80B259
:102C80004DF82400641C082CF4D32A48006840F056
:102C90000100284908600846006880B21C49091FE5
:102CA00008602448006820F00100224908600846B6
:102CB000006880B21649091F086000BF1448006808
:102CC00000F480600028F9D04FF6FF30104908600A
:102CD000002408E05DF8240080B2174A02EB84016A
:102CE000C1F8000C641C082CF4D3002010490860C3
:102CF00001200A49C87105E000200D490860012043
:102D0000064908720720FFF717F808B010BD000049
:102D1000445C004070000020260000208C01002050
:102D20007C000020C800002060010020720000200C
:102D300074000020780000200050004010B5FFF71C
:102D4000F3FE10BD0020064908604FF43F400549DE
:102D50000880084600880249091F08600020704763
:102D6000445C0040260000202DE9F04104460E4658
:102D7000154604F07F00FEF733FA0746AAB239463B
:102D8000304600F00BF8A9B204F07F00FFF700F91D
:102D90000020BDE8F08100BFFEE70000F0B514465A
:102DA00004F1010C4FEA6C07DFF824C00CEB41037F
:102DB0003D460AE00678401C90F800C046EA0C2226
:102DC00023F8022B9B1C401C6D1E002DF2D1F0BD80
:102DD0000060004030380A2801D2012070470020EE
:102DE000704700BF704710B504464FF47A7104FB7A
:102DF00001F000F001F810BD0CB500210191009127
:102E000001910BE00021009102E00099491C009122
:102E100000990529F9D30199491C01910199814231
:102E2000F0D30CBD00BF054A128802F04002002A10
:102E3000F9D0C2B2014B1B1D1A8070470038014007
:102E400010B580210848FEF7B1F94FF4007106482B
:102E5000FEF7ACF94FF480610348FEF7A7F903A031
:102E6000FDF7FAF910BD0000001801406C65642000
:102E70006F6666200D0A000010B580210848FEF735
:102E800097F94FF400710648FEF792F94FF480610C
:102E90000348FEF78DF903A0FDF7DEF910BD000031
:102EA000001801406C6564206F6E200D0A00000060
:102EB0004FF4E13000F096F8FEF722FD002404E024
:102EC000002034490855601CC4B20A2CF8DBFEF718
:102ED00025F8FFF72BF94FF4FA70FFF784FFFFF79F
:102EE00051F9FFF7FDFDFFF7DDFD00BF2A4800683F
:102EF0000528FBD14FF4FA70FFF775FF27A0FDF707
:102F0000ABF946E000240BE02248005D30B1002020
:102F100020490855214626A0FDF79EF9601CC4B241
:102F20000A2CF1DB1C480068052828D122480078CB
:102F300028B322480078012803D10520FEF706FCBB
:102F400012E01E480078022803D10320FEF7FEFBA2
:102F50000AE01A480078032803D10220FEF7F6FBA6
:102F600002E00020154908701448007838B1134871
:102F7000017813A0FDF770F9002010490870C820EF
:102F8000FFF731FFFFF75CFFC820FFF72CFFFFF7CB
:102F900073FFB7E78C0100205C010020496E697463
:102FA0002066696E69736865642E2E2E200D0A00F6
:102FB0002564200D0A0000003000002031000020B0
:102FC0004A6F79737469636B5F53656E642C20621A
:102FD0007574746F6E5F74797065203D2025642070
:102FE0000D0A000010B586B00446012144F2040029
:102FF000FEF722FE4FF40070ADF8140003208DF8A8
:10300000160018208DF8170005A91C48FEF73AF89D
:103010004FF48060ADF8140004208DF8170005A966
:103020001648FEF72FF825208DF8000003208DF8B4
:1030300001008DF8020001208DF803006846FEF7BC
:103040008DFC01940020ADF80800ADF80A00ADF841
:103050000C00ADF810000C20ADF80E0001A90848D6
:10306000FFF792FC012240F225510548FFF766FC6C
:1030700001210348FFF72CFC06B010BD00080140F9
:103080000038014012010002000000408304205774
:1030900000020102030109022000010100C03209FF
:1030A00004000002080650040705810240000007E2
:1030B000050202400000040309042603780078009A
:1030C00078007800780061002D005400450043002E
:1030D0004800200043004F002E004C0054004400E4
:1030E00026033100320033003400350036004D0035
:1030F0006100730073002000530074006F007200C1
:1031000061006700650010035800580020004D0062
:10311000610073007300120100020000004083048C
:10312000105700020102030109022200010100E020
:10313000320904000001030102000921000100011D
:10314000224A000705810304002005010902A101AC
:103150000901A1000509190129031500250195039D
:10316000750181029501750581010501093009315B
:1031700009381581257F750895038106C0093C052E
:10318000FF09011500250175019502B1227506950B
:1031900001B101C0040309042603530054004D008B
:1031A0006900630072006F0065006C0065006300D9
:1031B000740072006F006E006900630073001E03EC
:1031C000530054004D003300320020004A006F00CD
:1031D000790073007400690063006B00040000084C
:1031E00000000000000000020001000010000000CC
:1031F0001032000800000020700100006C0100087F
:10320000B03200087001002070070000C8010008FB
:10321000412D010203040400091C060708090204E9
:1032200006081201142403421A4F0212541A4C06C3
:10323000124112441A4504E11C1A035320124D1284
:1032400033021F32131D0E0C30085B1904B2011A31
:10325000020D13AD18140875161B08A9081AAB0443
:1032600013E9121B08151013B5151408F5131B08E4
:10327000A1041A490C41324029440B18B917601AAD
:103280000D441316313308121A280832221A4A083C
:10329000324A1A3A0832091A940832041A98083243
:1032A000261ABE08321E225673201AA9A841000011
:0400000508000131BD
:00000001FF
